{
  "contractName": "Doacao",
  "abi": [
    {
      "inputs": [
        {
          "internalType": "address",
          "name": "beneficiario",
          "type": "address"
        }
      ],
      "payable": false,
      "stateMutability": "nonpayable",
      "type": "constructor"
    },
    {
      "payable": true,
      "stateMutability": "payable",
      "type": "fallback"
    },
    {
      "constant": true,
      "inputs": [],
      "name": "obterTotal",
      "outputs": [
        {
          "internalType": "uint256",
          "name": "",
          "type": "uint256"
        }
      ],
      "payable": false,
      "stateMutability": "view",
      "type": "function"
    },
    {
      "constant": false,
      "inputs": [],
      "name": "pagarBeneficiario",
      "outputs": [],
      "payable": false,
      "stateMutability": "nonpayable",
      "type": "function"
    }
  ],
  "bytecode": "0x6080604052336000806101000a81548173ffffffffffffffffffffffffffffffffffffffff021916908373ffffffffffffffffffffffffffffffffffffffff16021790555034801561005057600080fd5b506040516102a83803806102a88339818101604052602081101561007357600080fd5b810190808051906020019092919050505080600160006101000a81548173ffffffffffffffffffffffffffffffffffffffff021916908373ffffffffffffffffffffffffffffffffffffffff160217905550506101d3806100d56000396000f3fe6080604052600436106100295760003560e01c8063040271b21461003b57806354f847a214610052575b34600260008282540192505081905550005b34801561004757600080fd5b5061005061007d565b005b34801561005e57600080fd5b5061006761017f565b6040518082815260200191505060405180910390f35b6000809054906101000a900473ffffffffffffffffffffffffffffffffffffffff1673ffffffffffffffffffffffffffffffffffffffff163373ffffffffffffffffffffffffffffffffffffffff16146100d657600080fd5b60006060600160009054906101000a900473ffffffffffffffffffffffffffffffffffffffff1673ffffffffffffffffffffffffffffffffffffffff163073ffffffffffffffffffffffffffffffffffffffff163160405180600001905060006040518083038185875af1925050503d8060008114610171576040519150601f19603f3d011682016040523d82523d6000602084013e610176565b606091505b50915091505050565b60003073ffffffffffffffffffffffffffffffffffffffff163190509056fea265627a7a72315820672be152d8f2ea912291675c4ddffcaec5588ddacb7313cc422ac00a5c89df1264736f6c634300050b0032",
  "source": "// SPDX-License-Identifier: GPL-3.0\n//pragma solidity >=0.4.22 <0.9.0\npragma solidity ^0.5.11;\n\ncontract Doacao {\n    \n    address _dono = msg.sender;\n    address _beneficiario;\n    uint _total;\n    \n    constructor(address beneficiario) public {\n        _beneficiario = beneficiario;\n    }\n    \n    function() external payable {\n        _total += msg.value;\n    }\n    \n    function obterTotal() public view returns (uint) {\n        return address(this).balance;\n    }\n    \n    function pagarBeneficiario() public {\n        require(msg.sender == _dono);\n        (bool sent, bytes memory data) = _beneficiario.call.value(address(this).balance)(\"\");\n    }\n    \n}",
  "sourcePath": "/home/fernando/blockchain/eth/01/contracts/Doacao.sol",
  "compiler": {
    "name": "solc",
    "version": "0.5.11+commit.c082d0b4.Emscripten.clang"
  },
  "schemaVersion": "3.4.3",
  "updatedAt": "2021-11-06T18:20:13.831Z",
  "networkType": "ethereum",
  "devdoc": {
    "methods": {}
  },
  "userdoc": {
    "methods": {}
  }
}